:020000040800F2
:1000000098420020B9020008E11D0008D91D00082F
:10001000DD1D0008C51800083D260008000000008E
:10002000000000000000000000000000B11F0008F8
:10003000AD1A000800000000611E0008D51F00086E
:10004000D3020008D3020008D3020008D30200083C
:10005000D3020008D3020008D3020008D30200082C
:10006000D3020008D3020008D3020008C918000810
:10007000D3020008D302000859190008D30200086F
:10008000D3020008D3020008D3020008D3020008FC
:10009000D3020008D3020008D3020008B11A0008F6
:1000A000D30200080D210008D3020008D302000883
:1000B0003521000865210008D3020008D30200089A
:1000C000D3020008D3020008D3020008D3020008BC
:1000D000D3020008D3020008D3020008D3020008AC
:1000E000D3020008D3020008D3020008D30200089C
:1000F000D3020008D3020008D3020008D30200088C
:10010000D3020008D3020008D3020008D30200087B
:10011000D3020008D3020008D3020008D30200086B
:10012000D3020008D3020008D3020008D30200085B
:1001300000000000D3020008D3020008D302000828
:10014000D302000800F002F800F0A6F814A696E822
:10015000000CB244B344DA4501D100F09DF8BAE88E
:100160000F000FA696E83000A5EB040504EB060788
:10017000AAEB0704A7F101074FEA15154FEA34145B
:10018000A4F10104AC4201D300F086F813F0010F92
:1001900018BFFB1A43F0010300F001F8DBE7184732
:1001A000C07D0000E07D0000103A24BF78C878C10F
:1001B000FAD8520724BF30C830C144BF04680C606D
:1001C000704700007047000000230024002500262F
:1001D000103A28BF78C1FBD8520728BF30C148BFAA
:1001E0000B6070476E2900F08782702900F0CB8386
:1001F000662907F0C384652907F0C084672907F0E2
:10020000BD84612907F0BC8403681B0A28BF41F044
:100210008001692900F03482642900F03182752957
:1002200000F02E826F2900F05983782900F097831F
:10023000E92900F0F382E42900F0F082F52900F0CA
:10024000ED82EF2900F05683F82900F096830368C9
:10025000DB0928BF41F08001632901F0C9807329BF
:1002600001F0CE80E32901F0D980F32901F0DE808E
:10027000002070471FB501F02FF904000020002175
:1002800007F026FB401C60600020002107F00AFBFD
:10029000E0601FBD10B510BD01F0F0F81146FFF78A
:1002A000E9FF03F0CBF801F0CDF903B4FFF7F2FF5B
:1002B00003BC01F015FA00000948804709480047CF
:1002C000FEE7FEE7FEE7FEE7FEE7FEE7FEE7FEE706
:1002D000FEE7FEE704480549054A064B7047000063
:1002E0000520000845010008983C002098420020A5
:1002F000983E0020983E002053EA020C23D010B50F
:100300004C1084EA530404D54042C1F1000138BFC7
:10031000491E1B4204D55242C3F1000338BF5B1E85
:1003200000F0D3F814F0804F04D04042C1F1000136
:1003300038BF491E14F0004F04D05242C3F10003ED
:1003400038BF5B1E10BD13B540424FF0000070EB8C
:100350000104B8BF012001F0004100281CBF6FF06C
:1003600000414FF0FF30AFF300801CBD7CB51D464F
:1003700016460C00009007D04142A14202D320440F
:10038000401E01E04FF0FF30064B7B442A46694691
:100390000190304600F0C9F9002C02D0009A0021EB
:1003A00011707CBDC3030000032A40F2308010F0BE
:1003B000030C00F0158011F8013BBCF1020F624400
:1003C00098BF11F801CB00F8013B38BF11F8013B91
:1003D000A2F1040298BF00F801CB38BF00F8013B3E
:1003E00011F0030300F09E83083AC0F0088051F832
:1003F000043B083A51F804CBA0E80810F5E7121DB9
:100400005CBF51F8043B40F8043BAFF30080D207D7
:1004100024BF11F8013B11F801CB48BF11F8012BA3
:1004200024BF00F8013B00F801CB48BF00F8012BC6
:1004300070474FF000020429C0F0128010F0030C46
:1004400000F01B80CCF1040CBCF1020F18BF00F8C7
:10045000012BA8BF20F8022BA1EB0C0100F00DB876
:100460005FEAC17C24BF00F8012B00F8012B48BFD4
:1004700000F8012B70474FF0000200B51346944678
:100480009646203922BFA0E80C50A0E80C50B1F1EC
:100490002001BFF4F7AF090728BFA0E80C5048BF00
:1004A0000CC05DF804EB890028BF40F8042B08BF9E
:1004B000704748BF20F8022B11F0804F18BF00F89A
:1004C000012B704770477047704753EA020C00F0E9
:1004D00069802DE9F04B4FF00006002B1FBFB3FAE7
:1004E00083F503FA05F424FA05F65E4012BF1643BD
:1004F000B2FA82F502FA05F4C5F120051EBF22FA10
:1005000005FC44EA0C04203556EA044C4FEA144436
:1005100018BF641C4FF000084FF00009904271EBC7
:10052000030C39D3002919BFB1FA81F701FA07F694
:10053000B0FA80F700FA07F6C7F120071EBF20FACD
:1005400007FC46EA0C062037B6FBF4FCA7EB0507D0
:10055000103F07F01F0BCBF120062CFA06F60CFA21
:100560000BFB44BFB3460026202FA4BF5E464FF0CE
:10057000000B5BEA060C08BF4FF0010B19EB0B09EF
:1005800048EB0608ABFB027C06FB02CC0BFB03CC62
:10059000C01B71EB0C01C1E70B46024641464846C1
:1005A000BDE8F08B13B5084318BF4FF0FF3001468C
:1005B000AFF30080BDE81C40704770B50446856904
:1005C0000068C10601D5302600E02026C00707D00C
:1005D00070BDD4E9012130469047206A401C20625A
:1005E0006D1EF6D570BD70B5044685690078C007EC
:1005F00007D170BDD4E9012120209047206A401C1A
:1006000020626D1EF6D570BD09684A0501D540B25D
:100610007047C905FCD500B2704709684A0501D585
:10062000C0B27047C905FCD580B2704770B50C46A2
:100630000546012A05D02878800600D5EA690023FE
:1006400002E0012305E05B1C934202D2E05C00283B
:10065000F9D1A869E618C01AA861286A1844286266
:100660002846FFF7AAFF04E0D5E9012114F8010BA1
:100670009047B442F8D32846FFF7B5FF70BD00009D
:100680002DE9F0410646002410687529314616A56B
:1006900010D0FFF7B9FF002802DA404213A507E0A7
:1006A00031688A0701D512A502E0490704D511A5D2
:1006B000012401E0FFF7B1FF00210A2206F124071F
:1006C00009E0B0FBF2FCB0FBF2F302FB1C0030309F
:1006D00078541846491C0028F3D123462A46304650
:1006E000BDE8F04100F095BA000000002D000000C8
:1006F0002B0000002000000011680268006A53050A
:1007000001D508700AE0D30501D5088006E013067C
:1007100003D5C217C1E9000200E00860012070475C
:1007200001694A1C02610878704700B58FB0CDE9B5
:1007300001310021059105497944CDE903101146A5
:10074000684600F02BF90FB000BD0000E5FFFFFF89
:10075000D1E900239A4202D2531C0B6010707047FB
:100760002DE9FF5F15468A460446DFF8AC80F84461
:100770000027D8E900103E46CDE9001010E03AF815
:1007800016106A4602A800F055FE411C07D02178D9
:10079000890603D5E269391891420DD80744761CC1
:1007A0002078800602D5E069B84205DDAE42E6DB7E
:1007B0003AF816000028E2D1A069C01BA0612046CB
:1007C000FFF7FBFED8E90010CDE90010002017E08C
:1007D0003AF818106A4602A800F02CFEB0F1FF3F6C
:1007E00081460BD000250DF1080B05E0D4E901216D
:1007F0001BF8050090476D1C4D45F7D308F101002B
:10080000B0428046E4DB206A384420622046FFF78D
:10081000EAFEBDE8FF9F0000127400002DE9F041E0
:100820008046D21D22F007020025D2E90002F529F8
:1008300015A614D0011E72F1000106DA0023D0EBD8
:10084000030063EB020211A608E0D8F800108B0742
:1008500001D50FA602E0490701D50EA601251146D4
:10086000002408F1240704E000F08EF930323A55F4
:10087000641C50EA0102F7D12B463246214640461D
:10088000BDE8F04100F0C5B9000000002D000000F7
:100890002B0000002000000030B4002100F12404EF
:1008A00008E002F00705D208303542EA4372DB085F
:1008B0006554491C52EA0305F3D10468002310A2D1
:1008C000250708D504F020040C4304D0C469012393
:1008D0000CA2641EC46130BC00F09BB910B5044684
:1008E00021461068FFF799FE02462046BDE81040F9
:1008F0000023D1E7D21D22F00701D1E90023CBE785
:100900000000000030000000F0B40D460188090529
:1009100002D5214C7C4402E01F4C7C440E34002163
:1009200000F1240608E002F00F071209E75D42EA31
:1009300003721B097754491C52EA0307F3D102786A
:100940000023120704D5702D06D009B102231134FB
:100950002246F0BC00F05DB901231034F8E770B511
:1009600004460D4621461068FFF757FE0246294609
:100970002046BDE870400023C6E7D21D22F00703E1
:10098000D3E90023C0E70368126843F02003036043
:100990000823C3610023B7E7747200002DE9F05FFC
:1009A000894604464FF0000ADFF874B1FB44C0F8F2
:1009B00020A02046E1688847002874D0252806D06A
:1009C000D4E901219047206A401C2062F1E700260B
:1009D0005F462046E16888472028054607DB312D21
:1009E00005D2781910F8200C08B10643F1E7B007DA
:1009F00001D526F00406C4F81CA00027C4F818A0EE
:100A00002A2D09D0284606F045FF38B304EB8708A5
:100A1000303DC8F8185019E059F8041B204604EB83
:100A200087029161E1688847012F054618D1E06986
:100A3000002820DA26F020061DE0D8F8180000EB88
:100A4000800005EB40003038C8F818002046E16807
:100A50008847054606F01EFF0028EED1012F0AD078
:100A60002E2D08D12046E16888477F1C0546022FBD
:100A700046F02006C4DBA069002803DA404246F0B5
:100A80000106A061F00701D026F010066C2D0BD0F6
:100A9000682D09D04C2D39D06A2D35D0742D35D024
:100AA0007A2D33D016E038E0E1682F46204688479B
:100AB000B842054609D16C2F26D04FF48060E1681A
:100AC000064320468847054604E06C2F1AD04FF4B1
:100AD000807006430DB3A5F14100192802D82035D6
:100AE00046F400664A462946204626604E46FFF7F1
:100AF00079FB80B101280BD0F61D26F0070000F12C
:100B0000080956E74020E4E78020D8E70020D6E730
:100B100006F104094DE7284652E7206ABDE8F09F38
:100B20000472000010B5203AC0F00B80B1E81850F4
:100B3000A0E81850B1E81850A0E81850203ABFF4C7
:100B4000F5AF5FEA027C24BFB1E81850A0E8185066
:100B500044BF18C918C0BDE810405FEA827C24BFBA
:100B600051F8043B40F8043B08BF7047D20728BF48
:100B700031F8023B48BF11F8012B28BF20F8023B97
:100B800048BF00F8012B704730B5B0F10A0271F18F
:100B900000034FEA900E4EEA817EB0EB0E0061EB4F
:100BA00091014FEA101E4EEA017E10EB0E0041EB60
:100BB00011114FEA102E4EEA016E10EB0E0041EBC0
:100BC00011214FEA104E4EEA014E10EB0E0041EBA0
:100BD0001141401841F100014FEAD00040EA417054
:100BE0004FEAD1014FEA810444EA907410EB80058A
:100BF00044EB01046D1944EB0404521BA3414FF074
:100C0000000348BF0A3200D530BD401C41F100014D
:100C100030BD2DE9F0470D4699469246044600F155
:100C200024080168880604D5E06921F010012160DC
:100C300000E00120A84201DD471B00E00027A16978
:100C40007A1902EB0900081AA0612078C00602D4C4
:100C50002046FFF7B2FC002608E0D4E901211AF88B
:100C600006009047206A401C761C20624E45F4DB4B
:100C70002078C0060AD52046FFF79FFC06E0D4E99D
:100C8000012130209047206A401C2062381EA7F1C5
:100C90000107F4DC07E0D4E9012118F805009047CA
:100CA000206A401C2062281EA5F10105F3DC2046C5
:100CB000FFF799FC2078000602D50220BDE8F087F6
:100CC0000120FBE72DE9FF4F0C461E464FF0FF3792
:100CD0008BB0D2E90001DDF860800A908A46C1F34A
:100CE0000A5505B93D46002108464FF00000BAF10B
:100CF000000F00F4400005DA00EB80004FF44001E3
:100D000001EA50004FEA9059B9F1010F00DDB946F0
:100D10000A9850EA4A000ED044F61050A5F2FF356A
:100D200045432F14B8F1000F1ED07542291E1EDD59
:100D3000C9F100021CE0B8F1010F4FF0000001D032
:100D4000302103E0F24305E02154401CB042FBDBBC
:100D500030460022002121540B99C1F80880C1E9D6
:100D600000200FB0BDE8F08FBD1B6D1CDEE74A46CA
:100D700000DA694206A800F0F3FB06AB93E807002F
:100D800003AB83E8070050460A9906F0A7F98DE8FF
:100D90000700A0F500501F3800900398002D0ADDD1
:100DA00042F21F014A460844002303A90390684603
:100DB00006F010FC09E0A0F500504A461F38002359
:100DC00003A90390684606F01AFC8DE807000004AA
:100DD000000C03D04FF0FF30410800E01046B8F19E
:100DE000000F03D00022009215461EE0751E05D4A8
:100DF000FFF7CAFE303262556D1EF9D5B3460122A7
:100E0000084302D000227F1C04E02078302801D162
:100E100000227F1E002A099784D01DE0112D07DAD9
:100E2000FFF7B2FE303262556D1C50EA0102F5D177
:100E3000084302D00098C8B10EE00021681E05E00A
:100E4000235C625C63542254401E491C8142F7DBE0
:100E5000AB46A81B401E0990002004F80B000B981D
:100E6000099AC0F80880C0E9002B7AE711264FF0F4
:100E7000000857E72DE9F04F88460446D21D22F0BE
:100E8000070191B0D1E90001CDE90A0106F0EEFCBD
:100E900002460B98C00F01D02D2007E02068810783
:100EA00001D52B2002E0202101EAC000032A09908D
:100EB00001D0072A05DB03464146204600F010FB1F
:100EC0000BE12078800601D5E06900E00620B8F14A
:100ED000650F814606D0B8F1660F18D0B8F1670FDC
:100EE00070D131E00020B9F1110F009001DB112326
:100EF00001E009F101030AAA01A90CA8FFF7E2FE2B
:100F0000DDE90C70002609F10105834647E0012068
:100F10004B4600904FF000470AAA01A90CA8FFF722
:100F2000D1FEDDE90DB00C995D46002610B909F13E
:100F300001000D18B9EB050003D4C0F1FF3609F12B
:100F40000105A5EB09002BE0B9F1010F01DA4FF023
:100F500001090020B9F1110F0090484601DD11236D
:100F600000E003460AAA01A90CA8FFF7ABFEDDE9E1
:100F70000C704D4600268346207800070AD4AB4506
:100F800000DA5D4601A8012D04DD411911F8011CAC
:100F9000302907D04F4502DA17F1040F04DA012097
:100FA00082460FE06D1EEEE7002F02DCED1B3E4493
:100FB00003E0781CA84200DD7D1CB81B00F1010A8B
:100FC0004FF000472078000703D4AA4501DB4FF01B
:100FD000FF3A0021B7F1004F0DF143088DF843109F
:100FE00024D002202B23002F01DA7F422D230A2157
:100FF000021EA0F1010000DC5FB197FBF1FC97FB42
:10100000F1F201FB1C7C17460CF1300C08F801CD05
:10101000EEE7A8F1010003702188090501D54521FB
:1010200000E06521A0F1010800F8011C09980FA952
:10103000A1EB0807FF1D00B10120411901EBEA7087
:10104000A1693844081A401EA0612078C00602D465
:101050002046FFF7B2FA099828B1D4E90121904758
:10106000206A401C20622078C00622D52046FFF767
:10107000A4FA1EE0002E04DBB34502DD01A8805D6A
:1010800000E03020D4E901219047206A401C206212
:10109000761CAAF101005FEA000A0AD100F01CFAEE
:1010A000C0680168405CD4E901219047206A401C77
:1010B0002062281EA5F10105DCDC07E0D4E901214E
:1010C00018F8010B9047206A401C2062381EA7F1D7
:1010D0000107F3DC2046FFF786FA032011B041E652
:1010E0002DE9F04F04460D46D21D22F0070089B0CD
:1010F000D0E900974846394606F0B8FB0246F80F9B
:1011000001D02D2307E02068810701D52B2302E0C1
:10111000202101EAC0038DF820300BB1012000E04E
:101120000020032A824601D0072A04DB29462046F4
:1011300000F0D6F93FE12078800601D40D2500E0CB
:10114000E569C7F30A560D2D49DA00214FEA175B0E
:1011500008464FF00000002F00F4400007DA00EBD3
:1011600080004FF4400100EBD07001EA600081156F
:10117000012901DD4FF0FF3100224FEA850CBCF15F
:10118000180F06D31346ACF118004FF08052C2403E
:1011900003E04FF4801323FA0CF30CF10C0CBCF1B8
:1011A000200F04D3ACF1200C09FA0CF001E007FA8F
:1011B0000CF000294FF0004801DD18B90FE00ED106
:1011C00040450CD319EB02095F4121B9404502D1DA
:1011D0009F4329EA0209BBEB175F00D0761C2088E9
:1011E000000502D57B48784402E07A4878441938F3
:1011F00008AA302302F80A30037C0AF10101002E0C
:101200000AF1020A53546A4602DC4FF0300101E051
:101210004FF031014FF001088DF8001002D0A6F216
:10122000FF3603E059EA470100D06B4E002D02DC87
:101230002178090704D54FF002082E218DF80110FE
:10124000C44600210BE0C7F303433F01C35C491CC4
:101250006D1E02F80830052908F1010801DA002D99
:10126000F1DC00210CE000EB1973491C1B786D1EAA
:10127000082902F808304FEA091908F1010801DAD3
:10128000002DF0DC21688B0602D516E0A8F10108DC
:10129000E04505DD02EB080313F8013C302BF5D0E7
:1012A000B8F1000F09DD02EB080313F8013C2E2B07
:1012B00003D1090701D4A8F10108002D05DD3E2165
:1012C00002F808106D1E08F10108407C002E02F89B
:1012D000080008F1010804DA2D20764202F808001F
:1012E00002E02B2002F808000A214FF47A708642AF
:1012F00008F101080BDB96FBF0F3303302F80830FD
:1013000096FBF0F308F1010800FB136601E0642E80
:101310000CDB642096FBF0F3303302F8083096FBC8
:10132000F0F308F1010800FB136601E00A2E06DB6A
:1013300096FBF1F0303002F8080008F1010896FB46
:10134000F1F001FB1060303002F80800A16908F1EB
:10135000010808EB050202EB0A00081AA0612078D8
:10136000C00602D42046FFF728F9216A08AE01EB37
:101370000A00206204E0D4E9012116F8010B90472D
:10138000BAF1010AF7D22078C00602D52046FFF74D
:1013900014F96E4609E016F8010B3E280FD0D4E987
:1013A00001219047206A401C2062B8F10108F2D266
:1013B0002046FFF718F909B00320BDE8F08F206A36
:1013C0002844206203E0D4E90121302090476D1EBB
:1013D000EBD3F8E7EE69000002FCFFFF10B54369AC
:1013E00013B1AFF3008001E0FFF720F9012010BD39
:1013F000127800F124010A7000224A700122EDE700
:1014000011684FF0FF32E9E710B5436913B1AFF34C
:10141000008001E0FFF7A4F9012010BD128800F15F
:10142000240182840022C2840122EDE711684FF07A
:10143000FF32E9E72DE9F04116460C46054600F07B
:1014400043F8036893F80101012807D0FF2C12D854
:10145000185D80B101202C70BDE8F081D3F8070140
:101460003246214603F20713C7182846BC46BDE89A
:10147000F041002360474FF0FF30EDE7754600F084
:10148000EBF8AE4605006946534620F00700854656
:1014900018B020B5FEF71EFFBDE820404FF0000653
:1014A0004FF000074FF000084FF0000BAC46ACE8DF
:1014B000C009ACE8C009ACE8C009ACE8C00921F03B
:1014C00007018D467047000010B500F005F8001DBB
:1014D00010BD00BFFD6300000048704760000020A1
:1014E0002DE9F0411F46044603260168072A01F44E
:1014F000006004DB08B116A505E016A503E008B1FD
:1015000015A500E015A521F010002060A069C01EFF
:10151000A0610FB1401EA0612046FFF74EF84FB109
:10152000D4E9012138469047206A401C2062C01C43
:10153000206206E0206AFAE7D4E9012115F8010BE0
:101540009047761EF8D22046FFF74DF8BDE8F081AF
:101550004E414E006E616E00494E4600696E660057
:101560002DE9F047814616468AB0354878440DC8C3
:101570008DE80D0032487844801C03AC0DC884E827
:101580000D0041F69B300844372190FBF1F290FBAF
:10159000F1F5A5F1800501FB12041B3C02D5644264
:1015A000012000E00020DFF898A080460027FA44E0
:1015B000AAF1BE0A0EE0E0070AD03246684607EB01
:1015C000470101230AEB810106F019F88DE80700B5
:1015D00064107F1C002CEED1194F7F44AE3F19E000
:1015E000E80715D007EB04100DF1180A90E80E007B
:1015F0008AE80E00C068F04201D19819089032467E
:10160000012306A903A805F0FAFF03AB83E807004E
:101610006D10641C002DE3D14FF001033246694682
:10162000B8F1000F03A802D005F0D4FF01E005F0E7
:10163000E6FFC9E90001C9F808200AB0BDE8F08753
:10164000F866000010B50446AFF300802046BDE800
:101650001040FEF72ABE00000048704740000020FE
:101660004FF0013C50F8042B51F8043B9A4221D131
:10167000A2EB0C03934313EACC1317D150F8042BBD
:1016800051F8043B9A4215D1A2EB0C03934313EAA1
:10169000CC130BD150F8042B51F8043B9A4209D1DA
:1016A000A2EB0C03934313EACC13DBD04FF0000002
:1016B000704700BFD01A01BAB1FA81F101F01801E8
:1016C00022FA01F0CB40DBB2C0B2C01AC1F1200156
:1016D0002CFA01F3D11A914311EAC311E6D17047F4
:1016E00001491820ABBEFEE726000200704700004B
:1016F00080B542684FF6FF63CFF6F07302EA030C41
:101700000B680A7943EA0C0343EA022242608268CA
:101710004FF2FD73CFF6F17302EA030C8B898A68EE
:1017200091F805E043EA0C031A4342EA4E02826054
:10173000C26A897B0023CFF6F07322F4700203EBB8
:1017400001511143C16280BDB0B501EB410C4FF0B6
:10175000100E092988BFACF11E0C88BF4FF00C0E8B
:1017600050F80E40072505FA0CF5AC4303FA0CF3CC
:1017700023432C256FF0400440F80E300D2A38BF6B
:10178000302538BF6FF0220402EB8203072A3CBFEA
:1017900034256FF004041A1943591F249440A343BD
:1017A000914019434151B0BD0021016081808160A9
:1017B0008181012181737047816821F0010181607D
:1017C00070470000816841F00101816070470000AE
:1017D000816841F48071816070470000816841F444
:1017E000A0018160704700008068C0F380007047EE
:1017F0008068C0F3C000704710B542F20041C4F2E7
:101800000101884212D043F60041C4F2010188422E
:1018100009D042F60001C4F20101884218BF10BD90
:101820004FF4806404E04FF4004401E04FF400748E
:10183000204600F067FB2046BDE8104000F040BBAA
:10184000816841F00801816070470000816841F0C3
:10185000040181607047000080B582B040F2B44C52
:1018600042F26160C2F2000C4FF0060EC0F60000BA
:101870000CA1FF220023CDE900EC05F0B7F840F2FF
:10188000AC4C42F24160C2F2000C4FF0070EC0F6C1
:10189000000008A1FF220023CDE900EC05F0A6F826
:1018A00002B080BD6170705F316D735F7461736B86
:1018B000000000006170705F31306D735F746173A0
:1018C0006B000000FEE70000F0B587B0022000F0DA
:1018D000E1F801283DD10220022700F077F840F21C
:1018E000B856C2F200063078012832D142F20045E3
:1018F000C4F201052846FFF75FFF0824C4F2020482
:10190000204600F0B1F8012000F0E4FA05F14C00A7
:10191000019040F2A440C2F2000002900320049023
:101920004FF001300025CDF8150001A920468DF8B3
:101930000C508DF81450ADF8197000F04FF8204697
:10194000022100F097F8204600F09AF801F09CF888
:10195000357007B0F0BD000080B54FF4005000F0C6
:1019600099F8002808BF80BD40F2446C40F2B9519C
:10197000C2F2000CC2F20001BCF800200B78012B6F
:101980000FD172B140F6304EC2F2000EBEF8060022
:10199000BEF804301044B0FBF3F202FB1300AEF8C3
:1019A000060000200870ACF800004FF4005000F072
:1019B0000DF840F63040C2F2000003F00FFB00B11A
:1019C00080BDBDE8804003F085BB00000422010F0C
:1019D000C4F2020261F38A22106070470A7A036837
:1019E00062F3041303600A7D036862F34513036026
:1019F0000A7C036862F3861303604A7C036802F082
:101A0000010223F0800343EAC21202608A7C036869
:101A100002F0030223F4407343EA02220260CA7C0C
:101A2000036802F0030223F4406343EA8222026067
:101A30004A7D036802F0030223F4405343EA023272
:101A400002608A7D036802F0010223F4804343EAC6
:101A500082320260CA6842600A6882604968C16076
:101A60007047000041607047016821F0010101608A
:101A700070470000026822EA01010160704700001F
:101A8000016841F0010101607047000002681143E4
:101A9000016070470022010FC4F2020261F38A2242
:101AA0001168084018BF012070470000704700000F
:101AB00080B5802000F07EF8F0B1802000F036F88C
:101AC00040F2BC50C2F20000D0F800C0BCF1000FE0
:101AD00008BF80BD4EF2140040F2A00ECEF200000E
:101AE000C2F2000E4368DEF80010994205D2006889
:101AF000C91A0844013001E080BDC81A6421484376
:101B000048F63961C3F6E301A0FB0101322000EB86
:101B1000111045F62941C0F28F21A0FB01020020DF
:101B20000021CEF80030BDE88040604740F214410B
:101B3000C4F20101086070478179002940F2004138
:101B4000C4F2010127D002680B6823EA02020A608E
:101B500002684B6823EA02024A600279D0F800C0AA
:101B60000A43136843EA0C03136002688B6823EA94
:101B700002028A600268CB6823EA0202CA604279E4
:101B8000102A10D102688B681A438A600068CA68FC
:101B90001043C86070470279006811430A6822EA5E
:101BA000000008607047114300680A68104308602D
:101BB0007047000040F20041C4F201010A6849691F
:101BC0000240084018BF0120002A18BF012210401F
:101BD0007047000091F90320B2F1FF3F02F00F02BD
:101BE00001DC8B781A432DE9F0410B785FFA82F81B
:101BF00013B3064656F8142B00F1100C01240025EF
:101C00004FF00F0E06E000BF1C600435202D4FEA98
:101C1000440410D00B881C42F7D00EFA05F3CF789D
:101C20009A4308FA05F31A43282F3346ECD0482F7D
:101C3000EBD16346E8E702600A88B2F5807F38BFDF
:101C4000BDE8F081436800F1100C00F1140E4FF470
:101C5000807400220F2505E034600432202A4FEA08
:101C6000440410D00E883442F7D005FA02F6CF783B
:101C7000B34308FA02F63343282F7646ECD0482FB8
:101C8000EBD16646E8E74360BDE8F08180B5032903
:101C900014D840F2080EC4F2010E89004FF00F0C68
:101CA000DEF800200CFA01F39A43CEF80020DEF8AB
:101CB000002088401043CEF8000080BD072917D8C7
:101CC00040F2080E6FF00F02C4F2010E02EB810128
:101CD0004FF00F0CDEF804200CFA01F39A43CEF813
:101CE0000420DEF8042088401043CEF8040080BDB4
:101CF0000B2917D840F2080E6FF01F02C4F2010E34
:101D000002EB81014FF00F0CDEF808200CFA01F312
:101D10009A43CEF80820DEF8082088401043CEF819
:101D2000080080BD0F2988BF80BD40F2080E6FF00B
:101D30002F02C4F2010E02EB81014FF00F0CDEF80E
:101D40000C200CFA01F39A43CEF80C20DEF80C209C
:101D500088401043CEF80C0080BD0000B0B540F2C2
:101D6000040CC4F2010C0CF11802114610F4702F8F
:101D700004BF0421C4F20101030A0968182B08D129
:101D8000DCF800E021F070652EF07061CCF80010F6
:101D900001E041F07065D9B2C0F3031300F00F0405
:101DA0008B4025EA030304FA01F1194310F4702F64
:101DB00008BF62461160B0BD4FF6FF71C0F202412C
:101DC0000160704741617047016170471023002A2C
:101DD00008BF1423C1507047FEE70000FEE7000073
:101DE0007047000000F01F01012202FA01F14EF2DB
:101DF00080124011CEF2000242F82010704700001D
:101E00004EF60C5CCEF2000CDCF8003003F4E0631C
:101E1000A3F54073B3F5A06F01D21B0A06E040F2B0
:101E20000073C0F2FA53CCF800300423C3F1040C61
:101E300099400F2323FA0CF31A4011434EF200127B
:101E4000CEF200020901831883F8001300F01F018D
:101E5000012303FA01F1401142F8201070470000FD
:101E6000EFF30980BFF36F8F0D4B1A6820E9F00F75
:101E700010602DE908404FF0100080F3118803F046
:101E80001DFE4FF0000080F31188BDE8084019687E
:101E90000868B0E8F00F80F30988BFF36F8F7047D0
:101EA000FC06002041F20401C4F202010A6800F0BD
:101EB000030022F4404242EA80300860704700008C
:101EC00041F20C01C4F202010A6822EA0000086033
:101ED0007047000041F21401C4F202010A68104385
:101EE0000860704741F21C01C4F202010A68104305
:101EF0000860704741F21801C4F202010A681043F9
:101F00000860704741F20C01C4F202010A681043F4
:101F10000860704710B541F2040EC4F2020EDEF8FC
:101F2000003041F2002403F00303022BC0F27A04D4
:101F300018D1DEF800C0DEF80020CCF3834CD203C9
:101F40000CF1020C06D440F60012C0F23D020CFB6C
:101F500002F407E0DEF800200CFB04F3C2F3404279
:101F600023FA02F4DEF8002047F69243C2F303128C
:101F7000C0F600039A5C47F6A24C24FA02F3C0F6BE
:101F8000000C40B1DEF80020C2F302221CF802204F
:101F900023FA02F20260002908BF10BDDEF800003B
:101FA000C0F3C2201CF8000023FA00F0086010BD46
:101FB000074B19680868B0E8F00F80F30988BFF391
:101FC0006F8F4FF0000080F311884EF00D0E7047B8
:101FD000FC06002080B54FF0100080F31188BFF39D
:101FE0006F8FBFF34F8F04F07BFE30B14EF604507D
:101FF000CEF200004FF080510160002080F3118884
:1020000080BD000081B041F20400C4F2020050F82B
:10201000041C002241F0010140F8041C0168CFF6C5
:10202000FF021140016050F8041C4FF6FF72CFF61A
:10203000F662114040F8041C50F8041C21F4802181
:1020400040F8041C016821F4FE0101604FF41F01F7
:10205000416050F8041C41F4803140F8041C002118
:1020600000910099090B04290BD800BF50F8041CFB
:10207000890306D40099013100910099B1F5A04F70
:10208000F4D350F8041C890337D542F20001C4F29E
:1020900002010A68022342F010020A600A6863F330
:1020A00002020A600168042221F0F0010160016867
:1020B00021F460510160016862F30A210160016846
:1020C000072241F480310160016862F395410160AB
:1020D00050F8041C41F0807140F8041C50F8041CB6
:1020E0008901FBD50168022262F30101016000BF92
:1020F000016801F00C010829FAD14EF60850CEF221
:1021000000004FF00061016001B0704780B542F6F9
:102110000040C4F20100012100F038F840F2C05044
:10212000C2F200000068002808BF80BDBDE8804002
:102130000047000080B54FF08040012100F0F6F923
:10214000012818BF80BD4FF08040012100F01EF82B
:1021500040F2C450C2F20000006810B1BDE88040F7
:10216000004780BD80B540F20040C4F2000001216C
:1021700000F00CF840F2C050C2F2000000680028E5
:1021800008BF80BDBDE8804000470000C943016131
:10219000704700004163704781637047C1637047B7
:1021A000026A22F001020262826922F00302826165
:1021B0000A78836962F306138361CA78036A62F35B
:1021C000410303624A78036A62F3000343F2004268
:1021D000C4F201029042036205D042F60042C4F20A
:1021E0000102904223D10A79036A62F3C3030362B6
:1021F0008A78036A62F382030362426822F480727F
:102200004260426822F4007242604A79436802F0F8
:10221000010223F4807343EA022242608A79436810
:1022200002F0010223F4007343EA4222426009896A
:1022300041637047826901F0010122F0080242EA1D
:10224000C101816170470000026A22F0100202623F
:10225000826922F4E0428261826922F440728261E2
:102260000A78836902F0070223F4E04343EA02326A
:102270008261026A22F020020262CA78036A62F373
:10228000451303624A78036A62F3041343F200427F
:10229000C4F201029042036205D042F60042C4F249
:1022A000010290422FD1026A22F0800202620A7972
:1022B000036A02F0010223F0800343EAC2120262C1
:1022C000026A22F0400202628A78036A62F386138D
:1022D0000362426822F480624260426822F4006233
:1022E00042604A79436802F0010223F4806343EAC2
:1022F000822242608A79436802F0010223F400637B
:1023000043EAC2224260098981637047826901F011
:10231000010122F4006242EAC1218161704700009C
:10232000026A22F480720262C26922F07002C26103
:10233000C26922F00302C2610A78C36962F306131C
:10234000C361026A22F400720262CA78036A02F070
:10235000010223F4007343EA422202624A78036ACC
:1023600002F0010223F4807343EA022243F20043A5
:10237000C4F201039842026205D042F60042C4F260
:102380000102904233D1026A22F4006202620A79A9
:10239000036A02F0010223F4006343EAC2220262EC
:1023A000026A22F4806202628A78036A02F0010201
:1023B00023F4806343EA82220262426822F480525C
:1023C0004260426822F4005242604A79436802F057
:1023D000010223F4805343EA023242608A7943685F
:1023E00002F0010223F4005343EA423242600989B9
:1023F000C1637047C26901F0010122F0080242EA9C
:10240000C101C1617047000040F6FF72C4F20002D2
:1024100043F2004C9042C4F2010C0BDC40F2FF731B
:10242000C4F20003984218DCB0F1804F2AD040F289
:1024300000431AE042F6FF33C4F20103984219DC6C
:1024400041F20003C4F20003984239D041F2004344
:10245000C4F20003984233D029E040F60003C4F2EE
:10246000000398420ED040F60043C4F200039842A5
:1024700008D01CE0604505D042F60043C4F20103D9
:10248000984214D180B541F20043D0F800E040F406
:102490008062C4F200039A4240F28F320B7802EA63
:1024A0000E0242EA03020260BDE8804008D04A788A
:1024B000036802F0030223F4407343EA022202603D
:1024C0004A886045C2628A88826205D042F600422C
:1024D000C4F20102904201D189790163416941F05E
:1024E0000101416170470000C26822EA0101C16038
:1024F00070470000016841F0010101607047000071
:10250000016841F08001016070470000C26811431A
:10251000C1607047816841F08001816070470000B0
:10252000416C41F4004141647047000002690A4275
:1025300004D0C06808421CBF0120704700207047CB
:10254000826801F0070122F070028260826822F046
:10255000700242EA0111816070470000426801F098
:10256000070122F0700242EA011141607047000049
:10257000826861F30202826070470000B0B582B0E9
:102580000446C0680D464EF6F3110840A97A2A8920
:10259000AB881143194389B20843E06020694CF6C7
:1025A000FF71EA8808401043206160694FF6FF41DF
:1025B000AA89084043F600011043C4F201018C428D
:1025C000606119BF0DF1040000210DF1040100202C
:1025D000FFF7A0FC01982A68192148439100B0FB3D
:1025E000F1F048F21F51C5F2EB11A0FB01235A098B
:1025F0004FF69C73C0F6FF7302FB0300322303EB1C
:102600000010A0FB0101C1F3431040EA0210A060DA
:1026100002B0B0BD4FF416510022C0E900120C21E7
:102620000281817282817047C16841F40051C160AA
:10263000704700004269114341617047FEE70000A6
:1026400004F048FB40F2B044C2F20004206000BF36
:1026500002F024FE2046022104F0B4FAF8E700005C
:1026600004F038FB40F2B844C2F20004206000F0ED
:102670000BFC00F035FC00F0FDFA00F047FB00F029
:10268000C7F900F01FF800F0BFF800F04BF846F271
:102690007530C0F6000000F01DFC46F22520C0F6A3
:1026A000000000F00BFB40F20800C2F2000003F053
:1026B000BDFD00BF03F0B8FD2046012104F082FA01
:1026C000F8E70000F0B581B004200426FFF712FC03
:1026D00040F2000440F60005C2F200044FF400602E
:1026E000C4F20105208028462146E670FFF772FA01
:1026F00028464FF480514FF48057FFF763FB80204A
:10270000E070284621462780FFF764FA4FF4806284
:10271000E67028462146228001B0BDE8F040FFF770
:1027200059BA00002DE9F04F83B040F6000440F2A2
:102730000005C4F20104C2F200054FF400604FF03E
:10274000040A28802046294685F803A0FFF742FAAC
:1027500020464FF480514FF48058FFF733FB802719
:1027600020462946EF70A5F80080FFF733FA4FF4B2
:1027700080692046294685F803A0A5F80090FFF758
:1027800029FA4FF0000BCDF804B0019841F28736DA
:10279000B04207D841F28830019901310191019985
:1027A0008142F9D320464FF48051FFF70BFB2046BE
:1027B0002946EF70A5F80080FFF70CFA20464FF489
:1027C0000061FFF701FB4FF4006028802046294696
:1027D000EF70FFF7FFF92046294685F803A0A5F81A
:1027E0000090FFF7F7F9CDF808B00298B04207D88B
:1027F00041F2883002990131029102998142F9D364
:1028000003B0BDE8F08F0000F0B581B040F60004E1
:10281000C4F2010420464FF400614FF40066FFF754
:10282000D3FA40F20005C2F200058027204629466F
:10283000EF702E80FFF7CEF920464FF480514FF411
:102840008056FFF7C1FA20462946EF702E80FFF729
:10285000C1F904204FF48062E870204629462A809E
:1028600001B0BDE8F040FFF7B5B9000070B586B023
:1028700042F200440420C4F20104FFF73BFB05AD23
:102880002846FFF799FA10200026ADF81400A4F5A9
:10289000E05029468DF81760FFF79CF90020FFF7FC
:1028A00001FB4FF40070FFF725FB2046FEF7A4FF65
:1028B00001AD2846FEF778FF4FF48070ADF80800B0
:1028C0004FF46020039001208DF812002046294625
:1028D0000196ADF81060FEF70BFF2046042101229F
:1028E0000023FEF731FF2046FEF772FF2046FEF779
:1028F00069FF2046FEF7A4FF2046FEF779FF002877
:10290000FAD12046FEF7A2FF2046FEF76DFF002811
:10291000FAD12046FEF762FF06B070BD40F2B85013
:10292000C2F20000017845F24040C0F2890001295E
:1029300004BF45F20010C0F22520704784464FF0D6
:102940000100C1B340F2AA43C2F200031B7893B363
:1029500040F2B850C2F200000078012815D1BCF155
:10296000010F4FF0010026D1B2F5007F23D80AB342
:1029700040F2A400C2F200000238023930F8023FEF
:10298000013A21F8023FF9D114E0BCF1000F4FF0F9
:10299000010010D1032A88BF70475AB140F2A44009
:1029A000C2F200000238023930F8023F013A21F841
:1029B000023FF9D10020704740F2AA40C2F2000065
:1029C000007801280DD140F2B850C2F20000007822
:1029D000012808D101294FF0000008BF002A11D0BA
:1029E00070470020704700294FF00000F8D1022AFC
:1029F00088BF704740F2A440C2F2000000EB4200E2
:102A00000088704740F2A400C2F2000000887047BE
:102A1000F0B587B040F2AA45C2F20005287888BB1D
:102A200001200126FFF756FA42F24C40C4F20100A1
:102A3000019040F2A440C2F20000029003200490F2
:102A40004FF001300824CDF815000220C4F2020432
:102A50000027ADF8190001A920468DF80C708DF8FB
:102A60001470FEF7BBFF20460221FFF703F8204653
:102A7000FFF706F800F008F840F2B850C2F2000084
:102A800007702E7007B0F0BDF0B585B042F200447B
:102A90000420C4F201040426FFF72CFA04AD2846F2
:102AA000FFF78AF9ADF81060A4F5E056002730462C
:102AB00029468DF81370FFF78DF82020ADF810002F
:102AC00030462946FFF786F80220ADF81000304660
:102AD0002946FFF77FF803200326FFF7E3F94FF4B9
:102AE0000070FFF707FA2046FEF786FE6D4628467F
:102AF000FEF75AFE40F20110ADF804004FF46020DA
:102B00000290204629460097ADF80C708DF80E60B3
:102B1000FEF7EEFD2046022101220523FEF714FEFA
:102B20002046052102220523FEF70EFE2046012144
:102B300003220523FEF708FE2046FEF749FE204645
:102B4000FEF740FE2046FEF77BFE00BF2046FEF764
:102B50004FFE0028FAD12046FEF778FE2046FEF709
:102B600043FE0028FAD12046FEF738FE05B0F0BD3E
:102B700070B586B042F24C46C4F201060825A6F1B3
:102B80004C000C46C4F20205FEF716FE2846FEF77E
:102B90006BFF0120012C34D1FFF79CF940F2A40017
:102BA000C2F20000019000204FF4007140F20012C8
:102BB0008DF808000391C0F20112ADF814108DF8E1
:102BC00016006946284600960492FEF707FF28463D
:102BD0000221FEF75BFF0B2002210022FFF710F914
:102BE0002846FEF74DFFFFF741FE2846FEF73CFF63
:102BF00028464FF40071FEF735FF2846FEF740FFE8
:102C000022E0FFF767F940F2A440C2F20000019011
:102C100000208DF808008DF810004FF001300321DE
:102C2000CDF8110002200391ADF815006946284641
:102C30000096FEF7D3FE28460221FEF71BFF28462A
:102C4000FEF71EFFFFF720FF40F2B850C2F200006F
:102C5000047006B070BD000039B1002818BF70477D
:102C6000172001210022FFF7CBB800B170471720D1
:102C7000FFF7B8B8B0B584B00920FFF73BF90420DE
:102C80008DF80F0040F600408024C4F2010003A933
:102C9000ADF80C40FEF79EFF012007210125FEF74D
:102CA000F5FF4FF48050ADF8080001A801948DF8AD
:102CB0000A50FEF741FF04B0B0BD000040F2BC5125
:102CC000C2F200010860704749B1002818BF704780
:102CD00040F20040C4F200000121FFF717BC00B130
:102CE000704740F20040C4F200000121FFF7FCBB36
:102CF00040F22C40C4F20000006880B2704700002F
:102D000043F20060C0F26E10704700002DE9F043FE
:102D100087B040F60C00FFF7EDF802200225FFF720
:102D2000E1F840F2004640F20020C4F20006C8F686
:102D3000030006F582390DF1180806904846414611
:102D4000FEF748FF0120ADF8180006F58430414633
:102D5000FEF740FF4FF40800ADF8145004AD0490A6
:102D60000024304629468DF81640FFF74DFB4FF4FE
:102D7000006006F59437ADF8120038462946FFF793
:102D800043FB40F20710ADF806004FF480700DF1E0
:102D90000605029038462946ADF80E408DF80C40E5
:102DA000FFF752FA38460121FFF7B0FA30462946BC
:102DB000FFF7B6FA30460121FFF71CFB4220ADF8C1
:102DC0000E0030462946FFF7EBF930460121FFF7A8
:102DD00031FA30460421FFF7C1FB3046FFF79AFB7A
:102DE00038460221FFF7ACFB38460421FFF7C0FB51
:102DF0003846FFF785FB3046FFF782FB304601215E
:102E0000FFF784FB1D2002210022FEF7F9FF384660
:102E1000FFF786FB3046FFF783FB3846FFF76AFB78
:102E20003046FFF767FB40F20010C8F2030006903F
:102E300048464146FEF7CEFE48464FF480710122D7
:102E4000FEF7C4FF07B0BDE8F083000040F22C405D
:102E5000C4F200000160704740F2C050C2F20000AE
:102E60000160704740F20040C4F20000FFF796B9DD
:102E700042F60040C4F20100FFF78EB940F2004074
:102E8000C4F20000FFF786B980B582B00120FFF7D9
:102E900029F840F2E7310020C0F24701ADF8000008
:102EA000CDF802108DF8060069464FF08040FFF71C
:102EB000ABFA4FF080400121FFF728FB1C200421D2
:102EC0000222FEF79DFF4FF08040FFF713FB02B098
:102ED00080BD000040F2C451C2F20001086070479A
:102EE000F0B58BB044F20900FFF704F80120012788
:102EF000FEF7F0FF40F21120FEF730FF402043F6CE
:102F00000004C8F60300C4F201040A90A4F530508E
:102F10000AA9FEF75FFE06AD2846FFF77BFB4FF4DC
:102F2000E1300690082000268DF822002046294630
:102F30000796ADF82060ADF82460FFF71FFB40F660
:102F4000304040F63001C2F20000C2F200014FF4FE
:102F5000806202F085F84FF4807004904FF40070A6
:102F6000ADF8140043F604004425C4F20100C4F295
:102F70000205CDE900066946284603968DF80870DB
:102F80008DF81660FEF72AFD2046FFF74DFB204620
:102F90008021FFF74FFB28460221FEF777FD0E2028
:102FA00004210022FEF72CFF2846FEF75DFD40F2CB
:102FB000B950C2F2000006700BB0F0BD2DE9F04F21
:102FC000C1B00DF103090B46024648464FF480712B
:102FD000FDF7CCF98046000431D040F630461FFAA8
:102FE00088FA0025C2F200060DF2031742F2117BA7
:102FF00008E000BF19F80510304602F04DF8013521
:10300000554513D0002400BF304601F0F3FF0028DF
:10301000F0D03046394602F001F8611C002808BFA4
:103020000C46F1D188B25845EED3E3E740F2B950EF
:10303000C2F200000078002808BF02F04BF84046BA
:1030400041B0BDE8F08F0000002818BF7047B0B550
:10305000044603F093FA204601F0DAF9204601F025
:1030600039FB20460021002502F0E2FE43F6303411
:10307000C2F20004A4F85050E564C4F82750C4F824
:103080002B50C4F82F50C4F83350C4F8375003F015
:1030900075FA606810B103F05DFA656020782570FC
:1030A0006070642084F8525003F030FA6060BDE82C
:1030B000B040704710B540F27C62C2F20002582363
:1030C00000FB03246278012A18BF10BD01F0F4F957
:1030D000A06A0130A06203F051FA206510BD000023
:1030E0002DE9F04143F630370446C2F20007542080
:1030F00004FB007603F042FA96F85200002804BF61
:10310000012086F8520001F0D7FE00284AD106F1CE
:10311000080106F1280206F13403204600F060FDA4
:1031200000283FD0204600F03DFD96F8351096F877
:103130003630890096F8392086F84E10990086F8C6
:103140004F100A21A6F84C2086F8501086F851003E
:1031500028B154B147F65354C0F600041FE034B30D
:1031600047F64454C0F6000419E003F007FA786803
:1031700047F65354C0F6000440F2DC584FF0030504
:1031800018B103F0E7F90020786038783D70787066
:10319000002087F85200404603F0B8F978602046D6
:1031A00003F0EAF8002086F82700BDE8F08103F07C
:1031B000E5F9786847F64454C0F6000442F2107806
:1031C00000284FF00405DCD1DFE7000070B543F6BE
:1031D00030360546C2F20006542005FB006403F0B9
:1031E000CDF994F8520004F10802002804BF012030
:1031F00084F852002846214600F0F0FEE0B194F831
:10320000480001281BD1002084F84800BDB903F014
:10321000B5F9706818B103F09DF90020706030783E
:10322000707004203070002086F8520042F2107056
:1032300003F06CF9706002E02846FFF705FF0020FC
:1032400084F8270070BD000070B543F630360446A0
:10325000C2F20006542004FB006503F08FF995F8D4
:10326000520048B92046322101F08EF8204601F084
:103270008DF8012085F8520005F10801204600F084
:10328000EFFFD0B1204601F0F1F89CB903F076F9D8
:10329000706818B103F05EF90020706030787070CB
:1032A00002203070002086F852004FF47A7003F04C
:1032B0002DF97060204600F08FFD002085F8270072
:1032C00070BD0000F0B581B043F630370546C2F25C
:1032D0000007542005FB007403F050F994F85210D5
:1032E0000646002904BF012084F8520028462146E2
:1032F00001F072FC38B111A0314603F03DF82846C8
:10330000FFF7A2FE14E09DB903F038F9786818B110
:1033100003F020F900207860387878700420387045
:10332000002087F8520042F2107003F0EFF8786046
:10333000002084F8270001B0F0BD00BF5B41505071
:103340005D205B25646D735D20455054207265637C
:103350006569766564202D2072657475726E696E7C
:103360006720746F2053656C656374696F6E20709D
:10337000686173650D0A0000F0B581B040F27C62AF
:10338000C2F20002582300FB0325687801281BD1F4
:10339000288C0C46642928BF6424604300EB800716
:1033A000E86A7E000130E862EE6303F0E7F8296C1A
:1033B0006865B1EB470F38BF2E64686B201A48BFB1
:1033C0004042092802D96C6301B0F0BDE86A0328C5
:1033D00098BF6C6301B0F0BD70B543F6303504465C
:1033E000C2F20005542004FB005603F0C7F896F81B
:1033F0005200E0B17068F8B103F0C6F8E4B90028F3
:1034000008BF70BD03F0BAF8686818B103F0A2F8FD
:10341000002068602878687001202870002085F8F6
:10342000520041F2883003F071F8686070BD0120ED
:10343000002C86F85200E5D070BD000080B5FEF784
:103440000BFA02F0F1FA002080BD00009E281CDC7F
:10345000A0F142011E2921D80FF20A0000EB8102DF
:103460000120DFE801F0101F1F1F1F1F1F1F211F5A
:103470001F1F1F1F1F1F1F1F1F1F1F1F1F1F201F5B
:103480001F1F1F1F2300022070479F2804BF062014
:103490007047D72804BF0420704703E0242804BFE6
:1034A00007207047082070470520704703207047A9
:1034B000F0B581B00D4643F6844140F2FC66C2F29D
:1034C0000001C2F200060F6831680446081D02F0D0
:1034D00077F910B1601C0FD01AE0306843F62C3237
:1034E000C06AC2F200020121136801FA00F023EA67
:1034F00000001060601C0BD155B13068011D43F60F
:103500005C40C2F2000001B0BDE8F04002F098B9A2
:103510003068E41944600BD340F20C70C2F2000032
:1035200000683168043101B0BDE8F04002F06AB9CA
:1035300040F20470C2F2000000683168043102F009
:1035400061F943F62840C2F2000001688C4238BF9E
:10355000046001B0F0BD000043F6203540F2147A5B
:103560004EF6045843F6704743F61C36C2F2000587
:10357000C2F2000ACEF200084FF08059C2F20007F2
:10358000C2F2000615E000BF02F068F9F868C468EE
:10359000201D02F015F930680138306028680138C4
:1035A000286002F06BF9206B02F076F9204602F0F9
:1035B00073F928680028E7D1DAF800000228F8D368
:1035C000C8F80090BFF34F8FBFF36F8FF1E7000093
:1035D00006480068006880F3088862B661B6BFF3E9
:1035E0004F8FBFF36F8F00DF00BF000008ED00E0DA
:1035F0002DE9F04F85B0824603F06CFB40F278690C
:10360000C2F20009D9F80010054688423AD240F2C9
:103610000074C2F2000420680168A9B343F6884B25
:10362000C2F2000B09E000BF7860206831463F61BC
:1036300002F0E8F82068016831B3C068C768D0F8C4
:1036400000803E1D304602F0BBF8396A3846884794
:1036500097F824004007EDD5B86940444045E3D8C9
:10366000DBF800000028E5D00020CDE90108039731
:1036700003F01CFBDBF8000001A90022002303F08B
:103680000BF8D7E7002007E040F21071C2F200010A
:103690000A68086001202260CAF800002846C9F8BC
:1036A000005005B0BDE8F08F81B0002000904FF0D1
:1036B000100080F31188BFF36F8FBFF34F8F00BFEF
:1036C00000980028FCD001B0704700008AB040F29A
:1036D000007B40F2107A43F68845C2F2000B02AC40
:1036E000C2F2000AC2F200050DF10409DBF8000085
:1036F00007681FB1C068D0F8008001E04FF00008F3
:1037000002F0D4F92046FFF773FF029911B103F0DC
:1037100011FC75E0E7B180451AD85646824603F0A1
:1037200009FCDBF80000C068C76807F1040B5846C5
:1037300002F046F897F8240041070CD440F2007BD1
:1037400000F0FA00C2F2000B87F82400B2464FE006
:10375000B7B100221AE0B9693F6101EB080050459A
:10376000786028D9C24501D240452ED240F200727D
:10377000C2F2000210685946934602F043F8E5E7AA
:10378000DAF800100968B1FA81F14A092B68A8EB50
:103790000001184602F0E8F803F0CCFB80BB4EF6BF
:1037A0000450CEF200004FF080510160BFF34F8F04
:1037B000BFF36F8F24E0AAEB0800884205D230687F
:1037C0005946B24602F01EF80EE02868B24658B1DB
:1037D0000020CDE90608089703F068FA286806A9D2
:1037E0000022002302F058FF40F2007BC2F2000BDF
:1037F000396A3846884703E0DBF8000002F002F837
:1038000028682146002203F01BF800283FF46EAF21
:103810000298B0F1FF3F03DCDDE9032005999047F2
:1038200002980028ECD4049F786910B1381D01F08B
:10383000C7FF4846FFF7DCFE02990929E0D8DFE818
:1038400001F00505054E365505054E3697F824104E
:10385000039ABE6941F0010187F82410B318394674
:1038600041F8043F83423F6104D99042C4D293425D
:1038700003D2C1E7801AB0422CD3396A3846884750
:1038800097F824004007BBD528680028B8D00398D3
:10389000B969089708440021CDE9061003F006FA3B
:1038A000286806A90022002302F0F6FEA8E797F890
:1038B0002410039A41F0010187F8241013183946A7
:1038C00041F8043F8342BA613F613FF695AF002A59
:1038D0003FF496AFDAF8000001F094FF90E797F814
:1038E000240000F0FE0087F8240089E797F8240000
:1038F0008107F6D4384601F0CFFF81E7F0B581B0FB
:10390000044601F0ABFF94F94560012E0FDB04F192
:10391000240500BF286850B1284603F0CDFA0028DE
:1039200018BF02F053F870B2013E0128F2DCFF2606
:1039300084F8456001F0A2FF01F090FF94F9447013
:10394000012F0EDB04F11005286850B1284603F062
:10395000B3FA002818BF02F039F878B2013F012805
:10396000F2DC84F8446001B0BDE8F04001F086BFAD
:10397000002818BF704710B540F27C64C2F2000402
:10398000617801291ED100F0A5FE20780021617028
:10399000C0B1022806D847F68041C0F6000151F8B0
:1039A000201003E047F6DF51C0F6000147F6BB5098
:1039B00047F6D352C0F60000C0F6000202F0DCFC6D
:1039C00000202070BDE8104070470000F0B581B0C5
:1039D000044602F06BF840F20871C2F20001086878
:1039E000002843F6F030C2F2000003D0B4F1FF3FEC
:1039F0002EDD30E040F63C42C2F20002560702F1F2
:103A0000070342F6E066164418BF23F0070243F6A8
:103A10005443C2F200030025C3E9002526F0070342
:103A2000A3F108060E6043E90255B31A0E68C2E915
:103A3000006343F62442C2F20002136043F61C42C4
:103A4000C2F20002136001220270B4F1FF3F02DCF7
:103A50000278002A4CD174B114F1090F0BD8620717
:103A600004F1080308D024F0070210329A4298BFEC
:103A70000022134600E0002343F61C4CC2F2000C67
:103A8000DCF800205E1E964232D243F65444C2F265
:103A90000004266875689D4207D200BF326822B1D3
:103AA0005568344616469D42F8D30A6896421FD0A0
:103AB000D4F800E03768EA1A112A276029D343F6C0
:103AC0005445F418C2F20005626073602B462D68FD
:103AD000A542FBD35A689F18A74203D164682244C9
:103AE0001C465A606268A718AF4207D029460CE00E
:103AF000002403F01FFA204601B0F0BD09688D4292
:103B000003D0D5E900152A446260A342216018BFA2
:103B10001C6043F624417268DCF80030C2F20001F8
:103B20000C689A1AA242CCF8002038BF0A600078CC
:103B300043F630427168C2F20002002818BF41F01B
:103B40000041136800200EF10804C6E90001581C6A
:103B50001060CEE7034643F2A960C0F600004FF0C4
:103B6000807C21F0010103E90310A3F1400043F838
:103B7000202C704743F63031C2F2000191F8311029
:103B8000002818BF0021C8B27047000043F630314A
:103B9000C2F2000191F85310002818BF0021C8B2EA
:103BA0007047000040F24261C2F20001097800282B
:103BB00018BF0021C8B27047002818BF704740F2F4
:103BC0004060C2F200000021017040F24160C2F288
:103BD0000000017040F24260C2F2000001707047C4
:103BE0002DE9F04F81B040F24066994690460D466F
:103BF0000446C2F200064FF0020A4FF0030B00BF6A
:103C0000002C4FF0000040F0E080002D00F0DD803F
:103C1000E87F012840F0D08002F0B0FC3778032F15
:103C200000F2CA80DFE807F081021629BA1EA878E0
:103C3000B2FA82F2002C21464FEA521218BF01213B
:103C4000812841EA020000F0A280002808BF86F81F
:103C500000A0D5E7A878512806D1002CD0D1032F99
:103C600018BF86F800B0CBE7062840F09380E878CC
:103C700005386028C0F0918097E0A878512840F07E
:103C80009480A87F042840F29080E8787C2300F09C
:103C90003F0189F800106879490800F0070089F8A9
:103CA0000300AA7903EA520E89F801E0AB791C22DD
:103CB00002EA830289F80220EB7940F241624FEA7E
:103CC000D31C89F804C089F80510C2F20002E97912
:103CD0001278C1F30211904289F8061065D1BEF145
:103CE000000F62D058B240F24262C2F20002B0F15C
:103CF000FF3F82F800C00BDC204601F057F943F685
:103D0000D153C0F6000320460021052201F026F918
:103D1000002C4FF0010058D1317804291EBF042037
:103D20003070012001B0BDE8F08FA87871283CD137
:103D3000A87F052839D9E878000988F80000E878D4
:103D400000F00F0088F80100A88800BA000CA8F85D
:103D50000200A9794FEAD11988F80890A979EA797F
:103D600001F07F012B7A090441EA02211944C8F8C5
:103D70000410FFF76BFBB9F1010F88F809001FD1A0
:103D80004FF000000CBB012F1FD0012013E098B9A9
:103D9000022010E01838112807D840F24160C2F222
:103DA000000001780131017006E04FF0000064B9B5
:103DB000052F0AD005203070002001B0BDE8F08F3B
:103DC0004FF000000CB9022FE2D101B0BDE8F08F36
:103DD000002000F015B80000002818BF704740F21E
:103DE0004060C2F200000021017040F24160C2F266
:103DF0000000017040F24260C2F2000001707047A2
:103E0000B0B560B147F6AA4047F69651C0F600003B
:103E1000C0F60001B72202F0AFFA00BFFEE740F2A1
:103E20004864C2F2000404EB00110501002008718F
:103E3000886008734FF4967002F068FB6051B0BD63
:103E400010B540F24864C2F200042079002818BF7F
:103E500010BD4FF4967002F059FB206010BD0000B9
:103E6000B0B50C460278417809A0002A18BF01229B
:103E700003A308BF1846550002F07EFA6573B0BD73
:103E80005174287265666529203D2025640D0A005D
:103E90005265286672657129203D2025640D0A004F
:103EA00010B591F800C0BCF1040F2CD8DFE80CF07D
:103EB00003381B2E0C009868497888423FD10120B6
:103EC000187100213EA019E0986801309860487888
:103ED000C0F3440182F8391000221DA05A73BDE8D6
:103EE000104002F049BA487831280CD19868002176
:103EF00001309860182082F840001CA05973BDE87A
:103F0000104002F039BA0220587310BD49781C469F
:103F100001F0070101F04AF8A0680130A0600BE051
:103F200098681C4601309860487800F03F00D063E4
:103F3000410816A002F020FA0020607310BD002195
:103F4000197119A09960BDE8104002F015BA00BFC0
:103F50004E6577205265666572656E636520506FA9
:103F60007765723A20256420570D0A005265636513
:103F700069766520506F776572205265706F727434
:103F8000203D20323420506F730D0A005265717548
:103F9000657374204C6F616420506F776572203DAB
:103FA00020256420570D0A00456E64204E65676F1A
:103FB00074696174696F6E204572726F720D0A00C8
:103FC000456E64204E65676F74696174696F6E2019
:103FD000537563636573730D0A000000F0B581B01B
:103FE00058B147F6AA4047F69651C0F60000C0F611
:103FF0000001D22202F0C0F9FEE712B317460D46C7
:10400000064600F059FF002840F0F08040F2486179
:10401000C2F2000101EB0614217901291DD1012111
:1040200095F8392095F84E3095F84F70304685F860
:1040300048100621009700F04DFC304600F0BCFE11
:10404000D4E047F6AA4047F69651C0F60000C0F605
:104050000001D32202F090F9FEE7206840B102F09F
:1040600093FA28B1206802F075FA002001B0F0BD83
:10407000F87F012840F0BA80B878411E802900F20C
:10408000A8800020DFE811F08100B300A5008100C6
:104090008100B3009100A500B300A500A500A50014
:1040A000A500A500A500A500A500A500A500A500E8
:1040B000A500A500A500A500A500A500A500A500D8
:1040C000A500A500A5009900A500A000A500A500D9
:1040D000A500A500A500A500A500A500A500A500B8
:1040E000A500A500A500A5008100A500A500A500CC
:1040F000A500A500A500A500A500A500A500A50098
:10410000A500A500A500A500A500A500A500A50087
:10411000A500A500A500A500A500A500A500A50077
:10412000A500A500A500A500A500A500A500840088
:104130008400A500A500A500A500A500A500A50078
:10414000A500A500A500A500A500A500A500A50047
:10415000A500A500A500A500A500A500A500A50037
:10416000A500A500A500A500B300A500A500A50019
:10417000A500A500A500A500A500A500A500A50017
:10418000A500A500A500A500B300207B70BB6CE7CF
:1041900079793879BA79090241EA0040811815A085
:1041A000696402F0E9F8002016E0F878312812D0AE
:1041B000302814BF052003200EE0F91C30462A46A3
:1041C0002346FFF76DFE08E0F81C2146FFF748FE86
:1041D00003E0022000E004206073617B43F641634A
:1041E0003046C0F60003052200F0B8FE012001B001
:1041F000F0BD00BF5054782057504944203D202541
:10420000780D0A00002818BF704740F25860C2F2CB
:1042100000000021017040F25C60C2F20000016009
:1042200040F26060C2F20000017040F26460C2F2CD
:104230000000016040F26860C2F20000016040F2DC
:104240006C60C2F20000016040F27060C2F20000D7
:10425000016040F27460C2F200000160704700002B
:10426000F0B581B0002840F086800D46044602F08B
:1042700085F940F26061C2F200010978012940F03D
:104280007A80D5B1EA7F2946012A16D1887801289B
:1042900071D140F25864C2F20004C878217840F22B
:1042A0006862C2F200020329106003D002F066F9CE
:1042B00003202070012001B0F0BD40F25865C2F229
:1042C00000052A780146032A4FF0000056D8DFE89F
:1042D00002F00204160201B0F0BD40F27460C2F2B6
:1042E00000000068814246D3204600F0F3F92878A8
:1042F000022840D002F042F9022028703BE040F250
:104300007066C2F200063068814234D340F26460C5
:10431000C2F20000026801320A2A02602BD840F281
:104320006C60C2F20000006841F28832081A9042C4
:1043300021D820460F4600F0EFF92878012803D055
:1043400002F01CF90120287040F2746140F25C64B4
:1043500007F14400C2F20001C2F2000408602068C4
:1043600007F5FA710028316018BF02F0F3F8442015
:1043700002F0CCF82060002001B0F0BD02F0FEF8A1
:104380000020287001B0F0BD70470000002818BF61
:10439000704770B5054602F0F1F804462846012141
:1043A000012601F045FD284600F0B6F940F25865B7
:1043B000C2F200052878012802D002F0DFF82E7042
:1043C000442002F0A3F840F25C61C2F200010860F0
:1043D00040F26060C2F20000067040F26460C2F217
:1043E0000000066040F26C60C2F2000040F27461AE
:1043F000046004F14400C2F20001086040F2706100
:1044000004F5FA70C2F200010860BDE87040704720
:10441000002818BF704770B5044602F0AFF840F2AC
:104420006065C2F20005287801281BD140F25C6665
:10443000C2F20006306818B102F08CF8002030603B
:10444000204600F047F920460021002401F0F0FC4E
:1044500040F25866C2F20006307810B102F08EF8D1
:1044600034702C70BDE8704070470000002818BF01
:104470007047B0B502F082F840F26064C2F2000406
:104480002078012815D140F25C65C2F20005286849
:1044900018B102F05FF80020286040F25865C2F2BF
:1044A0000005287818B102F069F800202870002073
:1044B0002070BDE8B04070472DE9F04784B010B1DE
:1044C00004B0BDE8F08740F2B87605468946C2F2EE
:1044D0000006B1B140F2B9703178C2F2000000229A
:1044E0000270484649B381EA090040B2B0F1FF3F8B
:1044F000484622DC0120B9F1010FB8BF4FF0FF3070
:104500001BE02846FFF736FB40F2B971C2F200010A
:104510000A78012802F10100C2B208D1282A88BF16
:1045200000200870484688BF4FF0FF3005E0152A8C
:104530000870C5D300200870FF204FFA80FA80EA87
:10454000EA10A0EBEA104FFA80F8284686F80090AF
:10455000FFF71CFB50B1B8F10C0F0ADC4046B8F174
:10456000010FA8BF0120B8F1060F0BE0B8F1080F4A
:1045700001DD062008E04046B8F1010FA8BF012088
:10458000B8F1040FC8BF032040F2F061C2F200018D
:104590000E6844B2371B98BF0127BAF1000F48BF1D
:1045A0003719B7423FF48CAF2846394600F0E6F899
:1045B00040F2B470C2F2000001680CA20131016047
:1045C00009A0BAF1000F48BF024647F602508DE835
:1045D000C400C0F600004A464346039401F0CCFEF6
:1045E00004B0BDE8F08700BF496E63004465630016
:1045F000002818BF704770B501F06CFE002866D027
:1046000042F64101C9F68501A0FB011C40F65B7131
:10461000C5F2D711A0FB01210B0C03EB830245F679
:10462000294ED200C0F28F2EA2FB0E4644F6D35480
:10463000C1F26204A0FB0440440B04EB8405ED00CE
:10464000A5FB0E5240F2D865C2F200052B8040F265
:10465000D4654FEA1C43C2F200052B80A3EB114343
:1046600040F2E4650133C2F200052B806FEA91430A
:1046700003EB514140F2E863C2F20003198040F2BB
:10468000EC61C2F200010E8040F2F861C2F200015A
:104690000C806FEAD03101EB903040F2DC61C2F265
:1046A0000001088040F2E060C2F20000028040F2A7
:1046B000F060C2F200000021016040F2F460C2F23A
:1046C0000000017040F2F660C2F200000170BDE827
:1046D0007040704710B5B0B940F2F464C2F2000403
:1046E0002178012918BF10BD01F0F2FE40F2F662F8
:1046F000C2F20002127840F2F060C2F20000002123
:104700000160217002B110BD47F6F040C0F6000014
:10471000BDE8104001F030BE002818BF704770B5EA
:10472000044601F0D7FD45F22D71CBF6BD71A0FB1B
:1047300001062046750CFFF729FA28B1B20C204675
:10474000294601F099FE04E020462946002201F0A6
:1047500063FE40F2F060C2F200004621016040F2C8
:10476000F460C2F200000121017040F2F660C2F272
:1047700000000170BDE8704070470000F0B581B0E6
:1047800008B101B0F0BD39B30E460546FFF7F2F9A6
:10479000012841D140F2E06740F2DC61C2F200073B
:1047A000C2F2000138880988084484B240A031462A
:1047B000224601F0E1FD40F2F861A64238BF3446DE
:1047C000C2F2000138880988A0424CD24A1C001B62
:1047D00000EB520082B242E040F2F464C2F2000404
:1047E00021780129CDD101F073FE40F2F662C2F2C8
:1047F0000002127840F2F060C2F200000021002AAC
:1048000001602170BDD147F6F040C0F6000001B054
:10481000BDE8F04001F0B0BD40F2E460C2F200003B
:10482000028840F2EC60C2F2000040F2E8610088C9
:10483000C2F2000109888318581884B2A64238BF12
:104840003446944212D940F2D860C2F20000018886
:10485000A34215D24A1C1B1B03EB520292B22846FC
:1048600001F00AFE11E0601E82B20BE040F2D4605B
:10487000C2F2000000880022001B013081B201E07A
:10488000A21A92B2284601F0C7FD40F2F060C2F2CF
:104890000000046040F2F460C2F2000001210170E7
:1048A00040F2F660C2F200000021017001B0F0BDDC
:1048B0005B5057525D203A51495F44455649434544
:1048C0005F4150504C45203A2564202025640D0A54
:1048D00000000000002818BF704710B540F27C644B
:1048E000DDF808C0C2F20004002022840A22062952
:1048F0002080A0776384A4F824C0C4E91400227542
:104900000AD142F21071A16140F22471A070A1603D
:10491000A08300F0AFFC07E00120A07045F6D8109E
:10492000A06140F22470A06004F128002821FBF768
:10493000A2FD10BD2DE9F04F81B0DDF828801F46A3
:1049400015460C46814601F019FE40F27C6BA288A8
:10495000C2F2000B582109FB01BA51BA4FF47A7226
:104960005143C90B01FB05F69AF80210E2780129C0
:1049700002F007012FD1481E02286ED3042900F04F
:104980008F80002940F0FE8001F0F8FD3946424654
:1049900000F034FC0446304600F0EEFB0246A01B5B
:1049A00001B2002491424FF0000509DD9BF81E0082
:1049B0000130C3B2022B84BF012500208BF81E00FA
:1049C0009BF81E3047F6ED50C0F6000001F0D4FC15
:1049D0008AF81F4037E004294FF0000500F2D38029
:1049E000DFE801F0038245D1960000200021324625
:1049F00000F0ACFC01F0C2FD3946424600F0FEFB7F
:104A00000446304600F0B8FB0246A01B01B29142BA
:104A10004FF0000509DD9BF81E000130C3B2022BE8
:104A200084BF012500208BF81E009BF81E3047F63E
:104A3000ED50C0F6000001F09FFC01208AF8020052
:104A400000208AF81F0044F6B153C0F60003484620
:104A50000021052200F082FA95E0022044F6B153CD
:104A60008AF81F00C0F600034846022187E0394655
:104A7000424600F0C3FB9AF81C10012972D101468E
:104A80000220324600F062FC00286BD001208AF838
:104A90001D0000208AF81F003DA001F06DFC67E0BA
:104AA00001F06CFD3946424600F0A8FB0446304652
:104AB00000F062FB0246A01B01B291424FF00005DC
:104AC00009DD9BF81E000130C3B2022B84BF012513
:104AD00000208BF81E009BF81E3047F6ED50C0F604
:104AE000000001F049FC4EE03946424600F086FBEA
:104AF000014601203246012400F028FCB0B300201A
:104B00008AF81F002BA08AF81C4001F035FC2FE02A
:104B100004200021324600F019FC01F02FFD394637
:104B2000424600F06BFB0446304600F025FB02468F
:104B3000A01B01B2914209DD9BF81E000130C3B2F7
:104B4000022B84BF012500208BF81E009BF81E302D
:104B500047F6ED50C0F6000001F00EFC01208AF887
:104B6000020010E001208AF81F0001E08AF81F40CF
:104B70009AF81F1044F6B153C0F6000348460522C8
:104B800000F0ECF90025284601B0BDE8F08F00BF29
:104B90004865617679206C6F61642063616C69623D
:104BA000726174696F6E2073756363657373667584
:104BB0006C0D0A004C69676874206C6F6164206337
:104BC000616C6962726174696F6E2073756363658D
:104BD000737366756C0D0A002DE9F04381B00446CD
:104BE00000284FF0000040F07480002900F0718030
:104BF00040F27C66C2F200067078012806D10F46AA
:104C000000F05AF930B1012500205BE0002001B02E
:104C1000BDE8F0833079012811D1D6E903100130C5
:104C20008842306180F03880317D884204D196F925
:104C300003102046FEF73EFA0020002542E097F8D8
:104C4000270001282CD12046002101F017FBB87A5B
:104C50000125811E2F2900F29A800020DFE801F053
:104C600018477B838E323232323232323232323233
:104C70003232323232323232323232323232323214
:104C80003C323232323232323232323232323253D9
:104C90002046FEF76DFE13E000203061307110E019
:104CA000B06928B10138B061B0FA80F0400900E085
:104CB0000020B16829B10139B16002D10020307102
:104CC000012001252DB105462046012101F0D6FA2B
:104CD000284601B0BDE8F083582004FB006041780D
:104CE000012954D1C16C0131C1640020EAE70120DF
:104CF0003071F87A317DF07001F1130040F22471C7
:104D0000C6E9021098E797F826100025022938BF57
:104D100001251CD3B88997F8392090FA90F94FF4FF
:104D20007A7009FB00F007F10801C00B97F83530E5
:104D300097F8367000FB02F820460097FFF7FAFD5F
:104D4000074614A04946424601F016FB384645F690
:104D5000D811B161B6E7F97A2046FEF70DFB45F6AA
:104D6000D810B0614FE7582004FB0060417801295A
:104D70000DD1416C013141640020A3E7582004FBB0
:104D800000604178012902D1816C013181640020E9
:104D900098E700BF5250203D202564202C205270FF
:104DA000506F776572203D202564200D0A000000B9
:104DB0000020012101F062BA002818BF704710B529
:104DC00040F27C64C2F20004207801210128617065
:104DD00018D0022806D847F68041C0F6000151F8E5
:104DE000201003E047F6DF51C0F6000147F6BB5044
:104DF00047F6D852C0F60000C0F6000201F0BCFA37
:104E000001202070BDE810407047000078B180B5E7
:104E100047F6AA4047F6CE41C0F60000C0F60001B2
:104E2000612201F0A9FABDE8804000BFFEE740F230
:104E3000BC7300EB4002C2F2000303EBC203012289
:104E400005291A7588BF7047DFE801F003251015A2
:104E5000082AFF2200211A7300F0EEBB41F63161EF
:104E6000C0F21E0143F80C1F31210BE05522022134
:104E70001A7300F0E1BB42F23001C6F2552143F84B
:104E80000C1F272119714FF0050C1946052283F8D4
:104E900008C000F041BC002201211A7300F0CCBB15
:104EA000002123F80C1F99704FF0030C19460322C0
:104EB00083F808C000F030BCF0B581B001F05EFBB3
:104EC00040F2BC76C2F20006747D012C34D1B17D73
:104ED000012927D105460020002700F06BFC58B3BC
:104EE000002000F0A1FB70687775B8B114A02946C6
:104EF00001F042FA307D60B10B2715A5F019417819
:104F0000284601F039FA307DA7F10A0101378142C4
:104F1000F4D311A001F030FA70688047B06801F056
:104F200019FB09E0B06801F02FFB28B101203178AE
:104F3000B0750020FFF76AFF204601B0F0BD00BF4A
:104F40005B54785D20205B25644D735D202000005C
:104F500025782020000000000D0A0000B0B560B1E7
:104F600047F6AA4047F6CE41C0F60000C0F6000161
:104F7000EB2201F001FA00BFFEE740F2BC7C00EB3F
:104F80004004C2F2000C0CEBC4056B6001230CF86A
:104F90003410A5F8153022B1104601F0B7FAA86018
:104FA000B0BDAB75BDE8B040FFF730BF072988BF83
:104FB000704702A252F8211000F0F6BBFFFFFFFF7E
:104FC000FEFFFFFFFDFFFFFFFAFFFFFF01000000F4
:104FD000020000000300000006000000002804BFDB
:104FE00001207047C1880089081AB0FA80F0400992
:104FF0007047000078B1016869B1818859B10289B0
:10500000C0880132B2FBF1F303FB1121081AB0FA98
:1050100080F04009704700207047000000284FF0E2
:10502000000218BF002901D110467047026832B152
:10503000838823B1B0F806C003899C4502D10022C1
:1050400010467047C388D25C0A70C18882880131DB
:10505000B1FBF2F303FB1211C18001207047000085
:10506000002808BF7047016000218280C180018153
:105070007047000060B1016851B1818841B1028977
:10508000C3889A4228BF0189C088081A80B2704735
:10509000002080B270470000C8B1D0F800C0BCF159
:1050A000000F14D0838893B180B5028902F1010EFC
:1050B000BEFBF3F202FB13E3C288934204BF00205D
:1050C00080BD02890CF802100381012080BD002000
:1050D00070470000F0B587B040F63040C2F20000E3
:1050E000FFF77CFF00283FD140F63046C2F20006B1
:1050F0003046FFF7BFFFB8B34424C4F202040546AC
:105100002046FCF7B1FC4FF4807005904FF400701E
:105110000127ADF81800002004958DF80C708DF86B
:105120001A00F08840F63001C2F2000108440290F3
:1051300043F60400C4F20100019001A92046FCF7E7
:105140004DFC40F24460C2F200000580204602217E
:10515000FCF79CFC2046FCF793FC40F2B950C2F2ED
:105160000000077007B0F0BD40F2B950C2F2000075
:105170000021017007B0F0BD70B540F20C5342F24F
:10518000117C4FF44871C2F20003604538BF40F211
:105190008A2141F2893E93F8A420704538BF4FF42C
:1051A000FA71BAB1D3F8A04044F6D355D3F89C3085
:1051B0004443C1F2620584FB054683FB0534B31109
:1051C000A51103EBD67305EBD474234423EAE373F0
:1051D0000B44FFE74FF67C45CFF6FF7560452C4644
:1051E00038BFFA34704538BF05F5C874002A08BFC7
:1051F0006318642B98BF642318B270BD2DE9F04189
:1052000040F20C5CC2F2000C9CF87A302BB3A0EB9D
:10521000020E9CF87940AEEB010200204CF6CD481E
:105220000026002103E000BF01369E4217D2F5B2EE
:10523000254405FB08F73F0D07EB8707A5EB87051E
:10524000AFB20CEB8705AD6A9542EDD37545EBD84F
:105250003CF8175001312844E6E7002100200A04F9
:105260000EBF4FF6FF7089B2B0FBF1F000B2BDE89F
:10527000F081000040F20C50C2F200000021C0E9B1
:10528000271180F8A410C0F8A810C0E92011C0E9C7
:105290002211C0E9241180F898107047B0B50020A1
:1052A00000F092FC0446002000F0C8FC054601F026
:1052B00065F944F6D35205FB04F1C1F26202A1FB89
:1052C000021240F20C51C2F2000191F87E309209B4
:1052D000CBB191F87930B1F87C4031F813500133FB
:1052E000651BA1F87C504CF6CD455D432D0D91F822
:1052F0007AC005EB8505A3EB850381F87930ACF125
:10530000010381F87A3091F8783021F8132001EB0D
:105310008305A862B1F87C0091F87A501044A1F896
:105320007C00581C4CF6CD424243120D02EB820227
:10533000A0EB820081F87800681CC2B2142A81F8C0
:105340007A0004BF012081F87E00B0BD2DE9F04F46
:1053500081B00746002015468846002600F05EFC16
:1053600040F20C54C2F20004D4F8A810B1F57A7FD0
:1053700014D3A0A0C4E9276684F8A460C4F8A86088
:10538000C4E92066C4E92266C4E9246684F898600A
:1053900000F07EFF304601B0BDE8F08F042F00F230
:1053A0009580DFE807F003586E93030094F898C0E7
:1053B0000026BCF1020FC4F8A86078D3A4F108035A
:1053C000002267460026002100204FF0000A4FF01F
:1053D000000B4FF000094FF0000800BFD3E9225442
:1053E000083319EB050948EBE5781AEB040A4BEB97
:1053F000E47B6C43091905FB05F540EBE470521999
:1054000046F10006013FE9D16446A2FB0CC7A9FBA7
:1054100009E209FB082206FB047709FB08268CEA4F
:105420000E0387EA06021A4340F0938040F20C51C3
:105430000020C2F20001C1F8A800C1E92000C1E9C2
:105440002200C1E9240081F89800C1E9270081F811
:10545000A40001269EE700EB800048F21F51800067
:10546000C5F2EB11A0FB0110B5EB501F43D9420967
:1054700047F6B260C0F60000294600F009FF00269A
:1054800088E700EB800148F21F528900C5F2EB1259
:10549000A1FB021200EB5212AA422CD247F6067070
:1054A000C0F60000294600F0F3FE002672E7C4E9CA
:1054B000276684F8A460C4F8A860C4E92066C4E93B
:1054C0002266C4E9246684F8986063E70020C4E992
:1054D000270084F8A400C4F8A800C4E92000C4E9A7
:1054E0002200C4E9240084F8980047F61C60C0F646
:1054F000000000F0CDFE94F89810A8EB05070229F3
:1055000018D804F180004B1C00EBC10240F8315068
:10551000D9B2576000EBC10050E9022747F6676037
:1055200084F89830C0F600004346009700F0B0FEC3
:1055300001262FE704EBC100C0E91E5747F6626061
:10554000C0F600002A464346009700F0A1FE01265F
:1055500020E7A1FB0432AAFB09510AFB0811BCEBAE
:105560000E0C00FB04220BFB0911B741581B4FF432
:105570007A76A0FB060362EB010101FB063162466D
:105580003B46FAF7B9FE0746A9FB0723FD1709FBBF
:105590000533AAFB06010BFB061108FB073340F29B
:1055A0000C55801AC2F20005994104FB06F2002353
:1055B000C5F8A070FAF7A0FE00FB06F2012604A0D1
:1055C0003946C5F89C2085F8A46000F061FEE1E64C
:1055D00043616C2053686F7065203A256420204336
:1055E000616C20496E74657263657074203A25643D
:1055F0000D0A000043616C6962726174696F6E200C
:1056000074696D656F75742C20726576616C756553
:105610002063616C6962726174696F6E207374617A
:105620007475730D0A00000040F2D870C2F20000D9
:10563000002101707047000070B5044600200D463F
:10564000002600F0B1FE40F2D871C2F200010A89D2
:1056500088811044022DC88107D847F68C4268B271
:10566000C0F6000232F810000884102001224E60BB
:10567000C1E90466C1E9062045F29561C0F6000162
:10568000204600F045FE20460121BDE8704000F0B4
:1056900017BE000010B500F071FF40F2D874C2F2DE
:1056A00000042079802815D088BB207CC00705D055
:1056B000606904EB4000008CC00728D0002000F097
:1056C00013FEE18988424FF0000008BFA18900F075
:1056D00029FE1CE020690130C107206117D1E16972
:1056E000884206D2606904EB4000018C49080184BD
:1056F0000DE000202061D4E905010130884260619D
:1057000005D3012020700020002100F0D9FD606841
:105710000130606010BD00002DE9F04381B081468A
:10572000002015460E464FF0000800F03DFE40F206
:10573000D871C2F200010A8988811044C881F5B18C
:1057400000200AE0002343EA420201EB400301305B
:1057500002F58062A8421A8411D0325C002AF1D08E
:10576000002713463C465F1E3B401F0684F001079E
:10577000F8D1E3074FF4007318BF0023E3E71620C6
:10578000C1F80480C1E90488C1E9065045F2956179
:10579000C0F60001484600F0BBFD4846012101B0BB
:1057A000BDE8F04300F08CBD40F2D870C2F20000BA
:1057B0008160704740F2D870C2F2000000787047F4
:1057C000D0E9013201699A60D1F804C08268844549
:1057D000536008BF4A60002202610868013808600F
:1057E000086870474FF0FF31024642F8081F002159
:1057F0004260C0E90322016070470000002101619E
:105800007047000080B5D1F800C01CF1010207D03C
:1058100000F108039E465B681A686245FAD901E008
:10582000D0F810E0DEF8042008614A609160C1F809
:1058300008E0CEF8041001680131016080BD00006D
:10584000D0F800C0436808619A684B608A609A6823
:10585000996051600CF10101016070474FF0100038
:1058600080F31188BFF36F8FBFF34F8F40F20400B6
:10587000C2F20000016801310160704740F204008B
:10588000C2F2000001680139016018BF70470020B2
:1058900080F3118870470000B0B5D0B343F6F03103
:1058A000C2F20001097850F8042C002918BF4FF00B
:1058B000004111422DD0A0F108042368002B18BF2D
:1058C000B0BD22EA010140F8041C054600F0EEF8E4
:1058D00043F61C41C2F2000155F8040C0B682A463D
:1058E0001844086043F65441C2F2000108460968B2
:1058F000A142FBD34368C518A54204D152F8042C39
:1059000004461A4442606368E2188A4202D00A469A
:105910000BE0B0BD40F20872C2F200021268914280
:1059200003D0D1E9002119446160A042226018BF70
:10593000046043F63440C2F20000016801310160A6
:10594000BDE8B04001F0F6BA4EF21000CEF2000011
:1059500000210160816041F63F11C0F20101416008
:10596000072101607047000070B515460E460446D9
:10597000FFF774FF94F84400FF2804BF002084F868
:10598000440094F84500FF2804BF002084F8450037
:10599000FFF774FFA06B28B904F1240031462A46B2
:1059A00000F02CF82046BDE87040FDF7A7BF0000CE
:1059B00043F62C41C2F200010968016043F68441BC
:1059C000C2F20001096841607047000043F6904050
:1059D000C2F20000012101607047000010B50C46C2
:1059E00040F2FC61C2F2000109681831FFF70AFFBA
:1059F00020460121BDE81040FDF75ABDB0B50D4667
:105A000040F2FC61C2F20001096814461831FFF748
:105A100017FF002C18BF4FF0FF3528462146BDE880
:105A2000B040FDF745BD000080B582B043F6204C84
:105A300043F25950C2F2000C4FF0000EC0F60000C5
:105A400018A180220023CDE900EC00F0CFFF01284F
:105A500020D101F0FDFA01281CD14FF0100080F395
:105A60001188BFF36F8FBFF34F8F43F62840C2F208
:105A700000004FF0FF31016043F65040C2F20000D9
:105A80000121016043F68440C2F200000021016060
:105A900000F0A8FD47F65C70C0F60000006802B098
:105AA00080BD00BF49444C450000000043F624304F
:105AB000C2F20000016801310160704743F62430F2
:105AC000C2F20000006830B143F69040C2F200001C
:105AD00001210160704743F69040C2F200000021AE
